:020000040800F2
:100000000028002059190008E9180008EF18000816
:10001000F5180008FB18000801190008000000008E
:1000200000000000000000000000000007190008A8
:1000300013190008000000001F1900082B19000800
:10004000A1190008A1190008A1190008A1190008A8
:10005000A1190008A1190008A1190008A119000898
:10006000A1190008A1190008A1190008A119000888
:10007000A1190008A1190008A1190008A119000878
:10008000A1190008A1190008A1190008A119000868
:10009000A1190008A1190008A1190008A119000858
:1000A000A1190008A1190008A1190008A119000848
:1000B00039190008A119000800000000A119000862
:1000C000A11900080000000000000000A1190008AC
:1000D00000000000A1190008A1190008000000009C
:1000E000A1190008A1190008A119000800000000CA
:1000F0000000000000000000000000000000000000
:0C01000000000000000000005FF808F1A3
:10010C0010B5054C237833B9044B13B10448AFF345
:10011C0000800123237010BD34000020000000007B
:10012C00CC2F000808B5034B1BB103490348AFF3B0
:10013C00008008BD0000000038000020CC2F000813
:10014C0080B400AF134B1B680133124A1360114B80
:10015C001B683C2B07D1104B1B6801330E4A1360F4
:10016C000C4B00221A600C4B1B683C2B07D10B4B21
:10017C001B680133094A1360074B00221A60074BB6
:10018C001B68182B02D1054B00221A6000BFBD461C
:10019C0080BC7047200000201C00002018000020AC
:1001AC0080B400AF294B1B68092B06DC284B0022BE
:1001BC001A60264B1B68264A5360244B1B68092B7C
:1001CC0018DD224B1B68234A82FB03129210DB17AB
:1001DC00D31A1F4A13601D4B19681E4B83FB012356
:1001EC009A10CB17D21A13469B0013445B00CA1A01
:1001FC00174B5A60184B1B68092B06DC144B00225A
:10020C009A60154B1B68124AD360134B1B68092B61
:10021C0018DD114B1B680F4A82FB03129210DB177F
:10022C00D31A0B4A93600C4B19680A4B83FB0123BE
:10023C009A10CB17D21A13469B0013445B00CA1AB0
:10024C00034BDA6000BFBD4680BC7047180000202D
:10025C0000000020676666661C00002080B582B036
:10026C0000AF78607B68002B22D100220121BD48B1
:10027C0001F07CFE00220221BA4801F077FE002238
:10028C000421B84801F072FE00220821B54801F0A3
:10029C006DFE00221021B34801F068FE00222021DF
:1002AC00B04801F063FE01224021AE4801F05EFE31
:1002BC007B68012B22D101220121AA4801F056FEB4
:1002CC0000220221A74801F051FE00220421A5487A
:1002DC0001F04CFE01220821A24801F047FE012248
:1002EC001021A04801F042FE012220219D4801F07E
:1002FC003DFE012240219B4801F038FE7B68022B19
:10030C0022D100220121974801F030FE0022022167
:10031C00944801F02BFE01220421924801F026FEA4
:10032C00002208218F4801F021FE002210218D4867
:10033C0001F01CFE012220218A4801F017FE002248
:10034C004021884801F012FE7B68032B22D1002249
:10035C000121844801F00AFE00220221814801F0AB
:10036C0005FE002204217F4801F000FE0022082136
:10037C007C4801F0FBFD012210217A4801F0F6FDCA
:10038C0001222021774801F0F1FD0022402175481F
:10039C0001F0ECFD7B68042B22D101220121714874
:1003AC0001F0E4FD002202216E4801F0DFFD002285
:1003BC0004216C4801F0DAFD01220821694801F0A2
:1003CC00D5FD01221021674801F0D0FD002220212B
:1003DC00644801F0CBFD00224021624801F0C6FDCB
:1003EC007B68052B22D1002201215E4801F0BEFD65
:1003FC00012202215B4801F0B9FD00220421594879
:10040C0001F0B4FD00220821564801F0AFFD012295
:10041C001021544801F0AAFD00222021514801F07E
:10042C00A5FD002240214F4801F0A0FD7B68062B62
:10043C0022D1002201214B4801F098FD012202211A
:10044C00484801F093FD00220421464801F08EFD3E
:10045C0000220821434801F089FD00221021414867
:10046C0001F084FD002220213E4801F07FFD002296
:10047C0040213C4801F07AFD7B68072B22D10022F9
:10048C000121384801F072FD00220221354801F0AB
:10049C006DFD00220421334801F068FD0122082182
:1004AC00304801F063FD012210212E4801F05EFD61
:1004BC00012220212B4801F059FD0122402129481D
:1004CC0001F054FD7B68082B22D100220121254824
:1004DC0001F04CFD00220221224801F047FD0022D0
:1004EC000421204801F042FD002208211D4801F0A2
:1004FC003DFD002210211B4801F038FD0022202177
:10050C00184801F033FD00224021164801F02EFD61
:10051C007B68092B22D100220121124801F026FD13
:10052C00002202210F4801F021FD002204210D4878
:10053C0001F01CFD002208210A4801F017FD0122E0
:10054C001021084801F012FD00222021054801F07D
:10055C000DFD00224021034801F008FD00BF0837C3
:10056C00BD4680BD000C014080B582B000AF786004
:10057C007B68032B7AD801A252F823F09905000866
:10058C00D105000809060008410600083A4B1B6813
:10059C001846FFF763FE00224021384801F0E6FCC4
:1005AC0001228021354801F0E1FC01224FF48071D9
:1005BC00324801F0DBFC01224FF400712F4801F0AE
:1005CC00D5FC54E02C4B5B681846FFF747FE012224
:1005DC0040212A4801F0CAFC00228021274801F062
:1005EC00C5FC01224FF48071244801F0BFFC0122AC
:1005FC004FF40071214801F0B9FC38E01E4B9B68A8
:10060C001846FFF72BFE012240211C4801F0AEFCDE
:10061C0001228021194801F0A9FC00224FF48071BD
:10062C00164801F0A3FC01224FF40071134801F0AD
:10063C009DFC1CE0104BDB681846FFF70FFE0122F7
:10064C0040210E4801F092FC012280210B4801F060
:10065C008DFC01224FF48071084801F087FC0022C8
:10066C004FF40071054801F081FC00E000BF00BFB1
:10067C000837BD4680BD00BF0000002000080140C7
:10068C0080B584B000AF786039600123FB607B6873
:10069C00002B40F0C38000224FF48071B14801F070
:1006AC0065FC01224FF40071AE4801F05FFC0122A1
:1006BC004FF48061AB4801F059FC01224FF400610A
:1006CC00A84801F053FC01224FF48051A54801F0D9
:1006DC004DFC01224FF40051A24801F047FC0122CD
:1006EC004FF480419F4801F041FC01224FF400413E
:1006FC009C4801F03BFC3B685AB2FB685BB2134070
:10070C005BB2DBB2C3F10103DBB21A464FF400411A
:10071C00954801F02BFC3B685B103B603B685AB280
:10072C00FB685BB213405BB2DBB2C3F10103DBB21B
:10073C001A464FF480418C4801F018FC3B685B1062
:10074C003B603B685AB2FB685BB213405BB2DBB2F6
:10075C00C3F10103DBB21A464FF40051824801F099
:10076C0005FC3B685B103B603B685AB2FB685BB2B4
:10077C0013405BB2DBB2C3F10103DBB21A464FF498
:10078C008051794801F0F2FB3B685B103B603B68A1
:10079C005AB2FB685BB213405BB2DBB2C3F101032C
:1007AC00DBB21A464FF400616F4801F0DFFB3B6887
:1007BC005B103B603B685AB2FB685BB213405BB2A8
:1007CC00DBB2C3F10103DBB21A464FF48061664819
:1007DC0001F0CCFB3B685B103B603B685AB2FB689A
:1007EC005BB213405BB2DBB2C3F10103DBB21A465E
:1007FC0008215D4801F0BAFB3B685B103B603B682D
:10080C005AB2FB685BB213405BB2DBB2C3F10103BB
:10081C00DBB21A460421544801F0A8FB7B68012B7B
:10082C0040F0C88001224FF480714E4801F09EFBCD
:10083C0000224FF400714B4801F098FB01224FF459
:10084C008061484801F092FB01224FF40061454859
:10085C0001F08CFB01224FF48051424801F086FBE1
:10086C0001224FF400513F4801F080FB01224FF46C
:10087C0080413C4801F07AFB01224FF40041394899
:10088C0001F074FB3B685AB2FB685BB213405BB27D
:10089C00DBB2C3F10103DBB21A464FF4004132481C
:1008AC0001F064FB3B685B103B603B685AB2FB6831
:1008BC005BB213405BB2DBB2C3F10103DBB21A468D
:1008CC004FF48041284801F051FB3B685B103B60C2
:1008DC003B685AB2FB685BB213405BB2DBB2C3F14C
:1008EC000103DBB21A464FF400511F4801F03EFBE6
:1008FC003B685B103B603B685AB2FB685BB21340D1
:10090C005BB2DBB2C3F10103DBB21A464FF4805188
:10091C00154801F02BFB3B685B103B603B685AB2FF
:10092C00FB685BB213405BB2DBB2C3F10103DBB219
:10093C001A464FF400610C4801F018FB3B685B1041
:10094C003B603B685AB2FB685BB213405BB2DBB2F4
:10095C00C3F10103DBB21A464FF48061024801F087
:10096C0005FB03E0000C0140000801403B685B10F4
:10097C003B603B685AB2FB685BB213405BB2DBB2C4
:10098C00C3F10103DBB21A460821B24801F0EEFABA
:10099C003B685B103B603B685AB2FB685BB2134030
:1009AC005BB2DBB2C3F10103DBB21A460421A948E6
:1009BC0001F0DCFA7B68022B40F0C38001224FF47B
:1009CC008071A54801F0D2FA01224FF40071A248BF
:1009DC0001F0CCFA00224FF480619F4801F0C6FA76
:1009EC0001224FF400619C4801F0C0FA01224FF43F
:1009FC008051994801F0BAFA01224FF400519648FF
:100A0C0001F0B4FA01224FF48041934801F0AEFAA0
:100A1C0001224FF40041904801F0A8FA3B685AB209
:100A2C00FB685BB213405BB2DBB2C3F10103DBB218
:100A3C001A464FF40041874801F098FA3B685B1066
:100A4C003B603B685AB2FB685BB213405BB2DBB2F3
:100A5C00C3F10103DBB21A464FF480417D4801F02B
:100A6C0085FA3B685B103B603B685AB2FB685BB233
:100A7C0013405BB2DBB2C3F10103DBB21A464FF495
:100A8C000051744801F072FA3B685B103B603B68A4
:100A9C005AB2FB685BB213405BB2DBB2C3F1010329
:100AAC00DBB21A464FF480516A4801F05FFA3B689A
:100ABC005B103B603B685AB2FB685BB213405BB2A5
:100ACC00DBB2C3F10103DBB21A464FF4006161489B
:100ADC0001F04CFA3B685B103B603B685AB2FB6818
:100AEC005BB213405BB2DBB2C3F10103DBB21A465B
:100AFC004FF48061574801F039FA3B685B103B605A
:100B0C003B685AB2FB685BB213405BB2DBB2C3F119
:100B1C000103DBB21A4608214E4801F027FA3B6864
:100B2C005B103B603B685AB2FB685BB213405BB234
:100B3C00DBB2C3F10103DBB21A460421454801F0D4
:100B4C0015FA7B68032B40F0C98001224FF48071A9
:100B5C00414801F00BFA01224FF400713E4801F0BC
:100B6C0005FA01224FF480613B4801F0FFF90022A5
:100B7C004FF40061384801F0F9F901224FF480512B
:100B8C00354801F0F3F901224FF40051324801F0DD
:100B9C00EDF901224FF480412F4801F0E7F90122D1
:100BAC004FF400412C4801F0E1F93B685AB2FB6864
:100BBC005BB213405BB2DBB2C3F10103DBB21A468A
:100BCC004FF40041234801F0D1F93B685B103B60C6
:100BDC003B685AB2FB685BB213405BB2DBB2C3F149
:100BEC000103DBB21A464FF480411A4801F0BEF9FA
:100BFC003B685B103B603B685AB2FB685BB21340CE
:100C0C005BB2DBB2C3F10103DBB21A464FF4005105
:100C1C00104801F0ABF93B685B103B603B685AB283
:100C2C00FB685BB213405BB2DBB2C3F10103DBB216
:100C3C001A464FF48051074801F098F93B685B1055
:100C4C003B603B685AB2FB685BB213405BB2DBB2F1
:100C5C0004E000BF00080140000C0140C3F1010397
:100C6C00DBB21A464FF40061B14801F07FF93B68E2
:100C7C005B103B603B685AB2FB685BB213405BB2E3
:100C8C00DBB2C3F10103DBB21A464FF48061A84812
:100C9C0001F06CF93B685B103B603B685AB2FB6837
:100CAC005BB213405BB2DBB2C3F10103DBB21A4699
:100CBC0008219F4801F05AF93B685B103B603B6888
:100CCC005AB2FB685BB213405BB2DBB2C3F10103F7
:100CDC00DBB21A460421964801F048F97B68042BD4
:100CEC0040F0C38001224FF48071924801F03EF92C
:100CFC0001224FF400718F4801F038F901224FF4B2
:100D0C0080618C4801F032F901224FF4006189486E
:100D1C0001F02CF900224FF48051864801F026F99D
:100D2C0001224FF40051834801F020F901224FF4C5
:100D3C008041804801F01AF901224FF400417D48AE
:100D4C0001F014F93B685AB2FB685BB213405BB21A
:100D5C00DBB2C3F10103DBB21A464FF40041744815
:100D6C0001F004F93B685B103B603B685AB2FB68CE
:100D7C005BB213405BB2DBB2C3F10103DBB21A46C8
:100D8C004FF480416A4801F0F1F83B685B103B601E
:100D9C003B685AB2FB685BB213405BB2DBB2C3F187
:100DAC000103DBB21A464FF40051614801F0DEF842
:100DBC003B685B103B603B685AB2FB685BB213400C
:100DCC005BB2DBB2C3F10103DBB21A464FF48051C4
:100DDC00574801F0CBF83B685B103B603B685AB25C
:100DEC00FB685BB213405BB2DBB2C3F10103DBB255
:100DFC001A464FF400614E4801F0B8F83B685B109E
:100E0C003B603B685AB2FB685BB213405BB2DBB22F
:100E1C00C3F10103DBB21A464FF48061444801F080
:100E2C00A5F83B685B103B603B685AB2FB685BB251
:100E3C0013405BB2DBB2C3F10103DBB21A460821EB
:100E4C003B4801F093F83B685B103B603B685AB23F
:100E5C00FB685BB213405BB2DBB2C3F10103DBB2E4
:100E6C001A460421324801F081F87B68052B40F0CA
:100E7C00C98001224FF480712E4801F077F80122CD
:100E8C004FF400712B4801F071F801224FF480618E
:100E9C00284801F06BF801224FF40061254801F05D
:100EAC0065F801224FF48051224801F05FF80022CE
:100EBC004FF400511F4801F059F801224FF48041C2
:100ECC001C4801F053F801224FF40041194801F07D
:100EDC004DF83B685AB2FB685BB213405BB2DBB2B5
:100EEC00C3F10103DBB21A464FF40041104801F084
:100EFC003DF83B685B103B603B685AB2FB685BB2E9
:100F0C0013405BB2DBB2C3F10103DBB21A464FF400
:100F1C008041074801F02AF83B685B103B603B6856
:100F2C005AB2FB685BB213405BB2DBB204E000BFA9
:100F3C0000080140000C0140C3F10103DBB21A466A
:100F4C004FF40051B14801F011F83B685B103B6065
:100F5C003B685AB2FB685BB213405BB2DBB2C3F1C5
:100F6C000103DBB21A464FF48051A84800F0FEFF93
:100F7C003B685B103B603B685AB2FB685BB213404A
:100F8C005BB2DBB2C3F10103DBB21A464FF4006172
:100F9C009E4800F0EBFF3B685B103B603B685AB22D
:100FAC00FB685BB213405BB2DBB2C3F10103DBB293
:100FBC001A464FF48061954800F0D8FF3B685B10EF
:100FCC003B603B685AB2FB685BB213405BB2DBB26E
:100FDC00C3F10103DBB21A4608218C4800F0C6FFAE
:100FEC003B685B103B603B685AB2FB685BB21340DA
:100FFC005BB2DBB2C3F10103DBB21A4604218348B6
:10100C0000F0B4FF7B68062B40F0C38001224FF444
:10101C0080717F4800F0AAFF01224FF400717C48D8
:10102C0000F0A4FF01224FF48061794800F09EFF8C
:10103C0001224FF40061764800F098FF01224FF432
:10104C008051734800F092FF01224FF40051704818
:10105C0000F08CFF00224FF480416D4800F086FFB9
:10106C0001224FF400416A4800F080FF3B685AB2FD
:10107C00FB685BB213405BB2DBB2C3F10103DBB2C2
:10108C001A464FF40041614800F070FF3B685B105A
:10109C003B603B685AB2FB685BB213405BB2DBB29D
:1010AC00C3F10103DBB21A464FF48041574800F0FC
:1010BC005DFF3B685B103B603B685AB2FB685BB200
:1010CC0013405BB2DBB2C3F10103DBB21A464FF43F
:1010DC0000514E4800F04AFF3B685B103B603B6898
:1010EC005AB2FB685BB213405BB2DBB2C3F10103D3
:1010FC00DBB21A464FF48051444800F037FF3B688E
:10110C005B103B603B685AB2FB685BB213405BB24E
:10111C00DBB2C3F10103DBB21A464FF400613B486A
:10112C0000F024FF3B685B103B603B685AB2FB68E5
:10113C005BB213405BB2DBB2C3F10103DBB21A4604
:10114C004FF48061314800F011FF3B685B103B604D
:10115C003B685AB2FB685BB213405BB2DBB2C3F1C3
:10116C000103DBB21A460821284800F0FFFE3B6859
:10117C005B103B603B685AB2FB685BB213405BB2DE
:10118C00DBB2C3F10103DBB21A4604211F4800F0A5
:10119C00EDFE7B68072B40F0C98001224FF4807173
:1011AC001B4800F0E3FE01224FF40071184800F0D8
:1011BC00DDFE01224FF48061154800F0D7FE0122BC
:1011CC004FF40061124800F0D1FE01224FF480511F
:1011DC000F4800F0CBFE01224FF400510C4800F0F8
:1011EC00C5FE01224FF48041094800F0BFFE0022E9
:1011FC004FF40041064800F0B9FE3B685AB2FB6858
:10120C005BB213405BB2DBB204E000BF00080140EC
:10121C00000C0140C3F10103DBB21A464FF400414C
:10122C00444800F0A3FE3B685B103B603B685AB23D
:10123C00FB685BB213405BB2DBB2C3F10103DBB200
:10124C001A464FF480413B4800F090FE3B685B101F
:10125C003B603B685AB2FB685BB213405BB2DBB2DB
:10126C00C3F10103DBB21A464FF40051314800F0D0
:10127C007DFE3B685B103B603B685AB2FB685BB21F
:10128C0013405BB2DBB2C3F10103DBB21A464FF47D
:10129C008051284800F06AFE3B685B103B603B685D
:1012AC005AB2FB685BB213405BB2DBB2C3F1010311
:1012BC00DBB21A464FF400611E4800F057FE3B6843
:1012CC005B103B603B685AB2FB685BB213405BB28D
:1012DC00DBB2C3F10103DBB21A464FF4806115484F
:1012EC0000F044FE3B685B103B603B685AB2FB6805
:1012FC005BB213405BB2DBB2C3F10103DBB21A4643
:10130C0008210C4800F032FE3B685B103B603B68E8
:10131C005AB2FB685BB213405BB2DBB2C3F10103A0
:10132C00DBB21A460421034800F020FE00BF103740
:10133C00BD4680BD0008014080B582B000AF78602A
:10134C007B68072B4AD801A252F823F079130008C6
:10135C008713000895130008A3130008B1130008A5
:10136C00BF130008CD130008DB1300081E4B1B78BD
:10137C0019460020FFF784F931E01B4B5B781946C6
:10138C000120FFF77DF92AE0174B9B7819460220C4
:10139C00FFF776F923E0144BDB7819460320FFF7AF
:1013AC006FF91CE0104B1B7919460420FFF768F904
:1013BC0015E00D4B5B7919460520FFF761F90EE03E
:1013CC00094B9B7919460620FFF75AF907E0064BA3
:1013DC00DB7919460720FFF753F900E000BF00BF87
:1013EC000837BD4680BD00BF1000002080B500AF9F
:1013FC0000F0D2FA00F070F800F0F6F800F0A8F85F
:10140C002D4801F01DFA4FF47A7000F053F94FF4A7
:10141C007A7000F069F94FF47A7000F07FF94FF4AC
:10142C007A7000F095F9254B1B68012B0BD120210C
:10143C00234800F0B3FD1021214800F0AFFD4FF41C
:10144C007A7000F06BF91F4B1B68012B07D1FEF76C
:10145C0077FEFEF7A5FE4FF47A7000F02BF91A4BCD
:10146C001B68012B11D1194B1B685A1C17490A60B8
:10147C001846FFF779F8154B1B68042B02D1134B58
:10148C0000221A60FA2000F02FF9114B1B68012B77
:10149C00C9D1104B1B685A1C0E490A601846FFF73D
:1014AC004BFF0C4B1B68082B02D10A4B00221A6015
:1014BC00642000F04DF9B6E77800002068000020A9
:1014CC00000801405800002060000020500000205F
:1014DC00700000205400002080B590B000AF07F1E0
:1014EC00180328220021184601F062FD3B1D002242
:1014FC001A605A609A60DA601A610223BB61012398
:10150C00BB621023FB6200237B6307F118031846B0
:10151C0000F05EFD0346002B01D000F0C5F80F2350
:10152C007B600023BB600023FB6000233B61002336
:10153C007B613B1D0021184600F0CAFF0346002BBF
:10154C0001D000F0B1F800BF4037BD4680BD0000AF
:10155C0080B586B000AF07F1080300221A605A600C
:10156C009A60DA603B4600221A605A601D4B4FF0BD
:10157C0080421A601B4B41F63F725A60194B002295
:10158C009A60184B0922DA60164B00221A61154B2F
:10159C0000229A61134801F003F90346002B01D095
:1015AC0000F082F84FF48053BB6007F10803194632
:1015BC000C4801F099FA0346002B01D000F074F8A6
:1015CC0000233B6000237B603B461946054801F035
:1015DC0061FC0346002B01D000F066F800BF183701
:1015EC00BD4680BD7800002080B586B000AF07F105
:1015FC00080300221A605A609A60DA60224B9B69D9
:10160C00214A43F0040393611F4B9B6903F00403CD
:10161C007B607B681C4B9B691B4A43F008039361FE
:10162C00194B9B6903F008033B603B6800224FF6A3
:10163C00FC71164800F09AFC00224FF67F7114489A
:10164C0000F094FC4FF6FC73BB600123FB6000239D
:10165C003B6102237B6107F1080319460B4800F03C
:10166C000BFB4FF67F73BB600123FB6000233B61D8
:10167C0002237B6107F108031946054800F0FCFAC8
:10168C0000BF1837BD4680BD001002400008014065
:10169C00000C014080B582B000AF786000F072F8A9
:1016AC0000BF0837BD4680BD80B400AF72B600BF26
:1016BC00FEE7000080B483B000AF7860074B1B6876
:1016CC007A6892FBF3F3064A1360064B00221A6009
:1016DC0000BF0C37BD4680BC704700BF2400002003
:1016EC005C0000205800002080B483B000AF78600C
:1016FC00074B1B687A6892FBF3F3064A1360064BA0
:10170C0000221A6000BF0C37BD4680BC704700BF7A
:10171C0024000020640000206000002080B483B00E
:10172C0000AF7860074B1B687A6892FBF3F3064AAC
:10173C001360064B00221A6000BF0C37BD4680BCFC
:10174C00704700BF240000206C00002068000020BF
:10175C0080B483B000AF7860074B1B687A6892FB4B
:10176C00F3F3064A1360064B00221A6000BF0C37D5
:10177C00BD4680BC704700BF2400002074000020D0
:10178C007000002080B400AF214B1B68002B04DDDF
:10179C001F4B1B68013B1E4A13601D4B1B68002B23
:1017AC0002D11C4B01221A601B4B1B68002B04DD61
:1017BC00194B1B68013B184A1360174B1B68002B15
:1017CC0002D1164B01221A60154B1B68002B04DD4D
:1017DC00134B1B68013B124A1360114B1B68002B07
:1017EC0002D1104B01221A600F4B1B68002B04DD39
:1017FC000D4B1B68013B0C4A13600B4B1B68002BF9
:10180C0002D10A4B01221A6000BFBD4680BC704752
:10181C005C000020580000206400002060000020C4
:10182C006C00002068000020740000207000002074
:10183C0080B485B000AF154B9B69144A43F001038B
:10184C009361124B9B6903F00103BB60BB680F4BA8
:10185C00DB690E4A43F08053D3610C4BDB6903F018
:10186C0080537B607B680A4B5B68FB60FB6823F0F2
:10187C00E063FB60FB6843F08063FB60044AFB6839
:10188C00536000BF1437BD4680BC70470010024047
:10189C000000014080B584B000AF78607B681B68A5
:1018AC00B3F1804F13D10C4BDB690B4A43F00103AE
:1018BC00D361094BDB6903F00103FB60FB68002279
:1018CC0000211C2000F0A1F91C2000F0BAF900BF87
:1018DC001037BD4680BD00BF0010024080B400AF81
:1018EC00FEE780B400AFFEE780B400AFFEE780B443
:1018FC0000AFFEE780B400AFFEE780B400AF00BFDE
:10190C00BD4680BC704780B400AF00BFBD4680BCF4
:10191C00704780B400AF00BFBD4680BC704780B537
:10192C0000AF00F07FF800BF80BD000080B500AFB5
:10193C00024800F0D1FF00BF80BD00BF780000203E
:10194C0080B400AF00BFBD4680BC70470C480D4949
:10195C000D4A002302E0D458C4500433C4188C42FE
:10196C00F9D30A4A0A4C002301E013600432A24264
:10197C00FBD3FFF7E5FF01F0F7FAFFF737FD7047F0
:10198C0000000020340000200C300008340000203F
:10199C00C4000020FEE7000080B500AF084B1B68B8
:1019AC00074A43F010031360032000F023F90F20C3
:1019BC0000F008F8FFF73CFF0023184680BD00BF7D
:1019CC000020024080B582B000AF7860124B1A68DC
:1019DC00124B1B7819464FF47A73B3FBF1F3B2FB3D
:1019EC00F3F3184600F03BF90346002B01D001231A
:1019FC000EE07B680F2B0AD8002279684FF0FF307D
:101A0C0000F003F9064A7B681360002300E0012311
:101A1C0018460837BD4680BD280000203000002045
:101A2C002C00002080B400AF054B1B781A46054BE8
:101A3C001B681344034A136000BFBD4680BC70474B
:101A4C0030000020C000002080B400AF024B1B68A7
:101A5C001846BD4680BC7047C000002080B485B0DD
:101A6C0000AF78607B6803F00703FB600C4BDB680E
:101A7C00BB60BA684FF6FF031340BB60FB681A02E9
:101A8C00BB68134343F0BF6343F40033BB60044AA9
:101A9C00BB68D36000BF1437BD4680BC704700BF25
:101AAC0000ED00E080B400AF044BDB681B0A03F0D0
:101ABC0007031846BD4680BC704700BF00ED00E030
:101ACC0080B483B000AF0346FB7197F90730002B4D
:101ADC000BDBFB7903F01F02064997F907305B0912
:101AEC00012000FA02F241F8232000BF0C37BD465A
:101AFC0080BC704700E100E080B483B000AF0346C7
:101B0C003960FB7197F90730002B0ADB3B68DAB2BE
:101B1C000C4997F907301201D2B20B4483F8002319
:101B2C000AE03B68DAB20849FB7903F00F03043B87
:101B3C001201D2B20B441A7600BF0C37BD4680BCE2
:101B4C00704700BF00E100E000ED00E080B489B018
:101B5C0000AFF860B9607A60FB6803F00703FB61C3
:101B6C00FB69C3F10703042B28BF0423BB61FB698A
:101B7C000433062B02D9FB69033B00E000237B6195
:101B8C004FF0FF32BB6902FA03F3DA43BB681A4029
:101B9C007B699A404FF0FF317B6901FA03F3D9431B
:101BAC007B680B40134318462437BD4680BC7047F6
:101BBC0080B582B000AF78607B68013BB3F1807F69
:101BCC0001D301230FE00A4A7B68013B53600F21CC
:101BDC004FF0FF30FFF790FF054B00229A60044B4B
:101BEC0007221A60002318460837BD4680BD00BF87
:101BFC0010E000E080B582B000AF78607868FFF745
:101C0C002DFF00BF0837BD4680BD80B586B000AF44
:101C1C000346B9607A60FB7300237B61FFF742FFD8
:101C2C0078617A68B9687869FFF790FF024697F98E
:101C3C000F3011461846FFF75FFF00BF1837BD463F
:101C4C0080BD80B582B000AF0346FB7197F90730B9
:101C5C001846FFF735FF00BF0837BD4680BD80B57D
:101C6C0082B000AF78607868FFF7A2FF0346184691
:101C7C000837BD4680BD000080B48BB000AF7860E3
:101C8C00396000237B6200233B6248E101227B6ABE
:101C9C0002FA03F3FB613B681B68FA691340BB61F2
:101CAC00BA69FB699A4240F037813B685B68A34A8A
:101CBC0093425ED0A14A934275D8A14A934258D020
:101CCC009F4A93426FD89F4A934252D09D4A934267
:101CDC0069D89D4A93424CD09B4A934263D89B4A05
:101CEC00934246D0994A93425DD8122B2AD8122B94
:101CFC0059D801A252F823F07F1D0008591D000885
:101D0C006B1D0008AD1D0008B31D0008B31D0008B5
:101D1C00B31D0008B31D0008B31D0008B31D000857
:101D2C00B31D0008B31D0008B31D0008B31D000847
:101D3C00B31D0008B31D0008B31D0008611D000889
:101D4C00751D0008824A934213D02CE03B68DB6877
:101D5C003B6229E03B68DB6804333B6224E03B6870
:101D6C00DB6808333B621FE03B68DB680C333B628B
:101D7C001AE03B689B68002B02D104233B6213E002
:101D8C003B689B68012B05D108233B627B68FA6991
:101D9C001A6109E008233B627B68FA695A6103E027
:101DAC0000233B6200E000BFBB69FF2B01D87B68BE
:101DBC0001E07B6804337B61BB69FF2B02D87B6A33
:101DCC009B0002E07B6A083B9B003B617B691A68C5
:101DDC000F213B6901FA03F3DB431A40396A3B6973
:101DEC0001FA03F31A437B691A603B685B6803F0E2
:101DFC008053002B00F09080564B9B69554A43F062
:101E0C0001039361534B9B6903F00103BB60BB68F7
:101E1C00514A7B6A9B08023352F82330FB607B6A81
:101E2C0003F003039B000F2202FA03F3DB43FA686F
:101E3C001340FB607B68494A93420DD07B68484A4B
:101E4C00934207D07B68474A934201D1022304E0B6
:101E5C00032302E0012300E000237A6A02F003026C
:101E6C0092009340FA681343FB603B497B6A9B08E2
:101E7C000233FA6841F823203B685B6803F4803333
:101E8C00002B06D0384B1A683749BB6913430B60DB
:101E9C0006E0354B1A68BB69DB43334913400B60D2
:101EAC003B685B6803F40033002B06D02E4B5A685A
:101EBC002D49BB6913434B6006E02B4B5A68BB6939
:101ECC00DB43294913404B603B685B6803F4801388
:101EDC00002B06D0244B9A682349BB6913438B60B3
:101EEC0006E0214B9A68BB69DB431F4913408B60AA
:101EFC003B685B6803F40013002B06D01A4BDA68BE
:101F0C001949BB691343CB6006E0174BDA68BB6910
:101F1C00DB4315491340CB607B6A01337B623B6822
:101F2C001A687B6A22FA03F3002B7FF4AFAE00BF72
:101F3C0000BF2C37BD4680BC704700BF000032107C
:101F4C0000003110000022100000211000001210BF
:101F5C000000111000100240000001400008014078
:101F6C00000C0140001001400004014080B483B01B
:101F7C0000AF78600B467B8013467B707B78002B20
:101F8C0003D07A887B681A6103E07B881A047B682B
:101F9C001A6100BF0C37BD4680BC704780B485B059
:101FAC0000AF78600B467B807B68DB68FB607A88CF
:101FBC00FB6813401A04FB68D9437B880B401A4317
:101FCC007B681A6100BF1437BD4680BC70470000A7
:101FDC0080B586B000AF78607B68002B01D10123FF
:101FEC006CE27B681B6803F00103002B00F0878018
:101FFC00924B5B6803F00C03042B0CD08F4B5B688B
:10200C0003F00C03082B12D18C4B5B6803F4803368
:10201C00B3F5803F0BD1894B1B6803F40033002BC5
:10202C006CD07B685B68002B68D1012346E27B682F
:10203C005B68B3F5803F06D1804B1B687F4A43F445
:10204C00803313602EE07B685B68002B0CD17B4BDC
:10205C001B687A4A23F480331360784B1B68774AE9
:10206C0023F4802313601DE07B685B68B3F5A02F1D
:10207C000CD1724B1B68714A43F4802313606F4B75
:10208C001B686E4A43F4803313600BE06B4B1B6888
:10209C006A4A23F480331360684B1B68674A23F445
:1020AC00802313607B685B68002B13D0FFF7CCFC9C
:1020BC00386108E0FFF7C8FC02463B69D31A642B71
:1020CC0001D90323FAE15D4B1B6803F40033002BA9
:1020DC00F0D014E0FFF7B8FC386108E0FFF7B4FC6F
:1020EC0002463B69D31A642B01D90323E6E1534B17
:1020FC001B6803F40033002BF0D100E000BF7B68B9
:10210C001B6803F00203002B63D04C4B5B6803F09D
:10211C000C03002B0BD0494B5B6803F00C03082B12
:10212C001CD1464B5B6803F48033002B16D1434B18
:10213C001B6803F00203002B05D07B681B69012B85
:10214C0001D00123BAE13D4B1B6823F0F8027B68F8
:10215C005B69DB00394913430B603AE07B681B6910
:10216C00002B20D0364B01221A60FFF76DFC386132
:10217C0008E0FFF769FC02463B69D31A022B01D930
:10218C0003239BE12D4B1B6803F00203002BF0D0C3
:10219C002A4B1B6823F0F8027B685B69DB0027493C
:1021AC0013430B6015E0264B00221A60FFF74CFC22
:1021BC00386108E0FFF748FC02463B69D31A022B52
:1021CC0001D903237AE11D4B1B6803F00203002B9A
:1021DC00F0D17B681B6803F00803002B3AD07B68B6
:1021EC009B69002B19D0174B01221A60FFF72CFCAE
:1021FC00386108E0FFF728FC02463B69D31A022B32
:10220C0001D903235AE10D4B5B6A03F00203002B47
:10221C00F0D0012000F0A6FA1CE00A4B00221A6054
:10222C00FFF712FC38610FE0FFF70EFC02463B692A
:10223C00D31A022B08D9032340E100BF001002403F
:10224C0000004242800442429E4B5B6A03F0020350
:10225C00002BE9D17B681B6803F00403002B00F012
:10226C00A6800023FB75974BDB6903F08053002B92
:10227C000DD1944BDB69934A43F08053D361914B5E
:10228C00DB6903F08053BB60BB680123FB758E4B8D
:10229C001B6803F48073002B18D18B4B1B688A4A84
:1022AC0043F480731360FFF7CFFB386108E0FFF74E
:1022BC00CBFB02463B69D31A642B01D90323FDE007
:1022CC00814B1B6803F48073002BF0D07B68DB68B8
:1022DC00012B06D17B4B1B6A7A4A43F00103136234
:1022EC002DE07B68DB68002B0CD1764B1B6A754AA2
:1022FC0023F001031362734B1B6A724A23F004032D
:10230C0013621CE07B68DB68052B0CD16D4B1B6AE0
:10231C006C4A43F0040313626A4B1B6A694A43F02C
:10232C00010313620BE0674B1B6A664A23F001033F
:10233C001362644B1B6A634A23F0040313627B68C9
:10234C00DB68002B15D0FFF77FFB38610AE0FFF745
:10235C007BFB02463B69D31A41F28832934201D986
:10236C000323ABE0574B1B6A03F00203002BEED0A8
:10237C0014E0FFF769FB38610AE0FFF765FB0246E2
:10238C003B69D31A41F28832934201D9032395E079
:10239C004C4B1B6A03F00203002BEED1FB7D012B8F
:1023AC0005D1484BDB69474A23F08053D3617B68E6
:1023BC00DB69002B00F08180424B5B6803F00C035F
:1023CC00082B61D07B68DB69022B46D13F4B002286
:1023DC001A60FFF739FB386108E0FFF735FB02465E
:1023EC003B69D31A022B01D9032367E0354B1B68D9
:1023FC0003F00073002BF0D17B681B6AB3F5803FB0
:10240C0008D1304B5B6823F400327B689B682D4904
:10241C0013434B602B4B5B6823F474127B68196A73
:10242C007B685B6A0B43274913434B60274B0122A4
:10243C001A60FFF709FB386108E0FFF705FB02465D
:10244C003B69D31A022B01D9032337E01D4B1B68C0
:10245C0003F00073002BF0D02FE01C4B00221A600D
:10246C00FFF7F2FA386108E0FFF7EEFA02463B6933
:10247C00D31A022B01D9032320E0124B1B6803F063
:10248C000073002BF0D118E07B68DB69012B01D1C4
:10249C00012313E00B4B5B68FB60FB6803F4803299
:1024AC007B681B6A9A4206D1FB6803F470127B6846
:1024BC005B6A9A4201D0012300E0002318461837CA
:1024CC00BD4680BD001002400070004060004242DA
:1024DC0080B584B000AF786039607B68002B01D187
:1024EC000123D0E06A4B1B6803F007033A689A4259
:1024FC0010D9674B1B6823F0070265493B681343EF
:10250C000B60634B1B6803F007033A689A4201D0D7
:10251C000123B8E07B681B6803F00203002B20D07A
:10252C007B681B6803F00403002B05D0594B5B68D8
:10253C00584A43F4E06353607B681B6803F008035C
:10254C00002B05D0534B5B68524A43F460535360E5
:10255C00504B5B6823F0F0027B689B684D4913433A
:10256C004B607B681B6803F00103002B40D07B6839
:10257C005B68012B07D1474B1B6803F40033002B1E
:10258C0015D101237FE07B685B68022B07D1414B9F
:10259C001B6803F00073002B09D1012373E03D4B42
:1025AC001B6803F00203002B01D101236BE0394BB4
:1025BC005B6823F003027B685B68364913434B600E
:1025CC00FFF742FAF8600AE0FFF73EFA0246FB68B2
:1025DC00D31A41F28832934201D9032353E02D4B95
:1025EC005B6803F00C027B685B689B009A42EBD142
:1025FC00274B1B6803F007033A689A4210D2244B0E
:10260C001B6823F0070222493B6813430B60204BE5
:10261C001B6803F007033A689A4201D0012332E0A9
:10262C007B681B6803F00403002B08D0194B5B6814
:10263C0023F4E0627B68DB68164913434B607B68CC
:10264C001B6803F00803002B09D0124B5B6823F4C2
:10265C0060527B681B69DB000E4913434B6000F032
:10266C0021F802460B4B5B681B0903F00F030A4968
:10267C00CB5C22FA03F3094A1360094B1B6818461A
:10268C00FFF7A0F9002318461037BD4680BD00BFE8
:10269C000020024000100240F42F00082800002007
:1026AC002C00002090B48AB000AF2A4B3C1D0FCBFD
:1026BC0084E80F0040F201233B800023FB610023E0
:1026CC00BB6100237B6200237B6100233B62224BB6
:1026DC005B68FB61FB6903F00C03042B02D0082B35
:1026EC0003D02DE01D4B3B622DE0FB699B0C03F0EE
:1026FC000F0307F12802134413F8243C7B61FB6998
:10270C0003F48033002B13D0134B5B685B0C03F08A
:10271C00010307F12802134413F8283CBB617B69C1
:10272C000E4A02FB03F2BB69B2FBF3F37B6204E0DB
:10273C007B690B4A02FB03F37B627B6A3B6202E020
:10274C00064B3B6200BF3B6A18462837BD4690BC1F
:10275C00704700BFE42F00080010024000127A00FE
:10276C0000093D0080B485B000AF78600A4B1B684F
:10277C000A4AA2FB03235B0A7A6802FB03F3FB60A1
:10278C0000BFFB685A1EFA60002BF9D100BF00BFD6
:10279C001437BD4680BC704728000020D34D621012
:1027AC0080B582B000AF78607B68002B01D101232B
:1027BC0041E07B6893F83D30DBB2002B06D17B689F
:1027CC00002283F83C207868FFF764F87B680222CB
:1027DC0083F83D207B681A687B68043319461046E1
:1027EC0000F06AFA7B68012283F846207B6801229C
:1027FC0083F83E207B68012283F83F207B6801220E
:10280C0083F840207B68012283F841207B680122F9
:10281C0083F842207B68012283F843207B680122E5
:10282C0083F844207B68012283F845207B680122D1
:10283C0083F83D20002318460837BD4680BD0000B4
:10284C0080B485B000AF78607B6893F83D30DBB224
:10285C00012B01D0012335E07B68022283F83D2057
:10286C007B681B68DA687B681B6842F00102DA60DF
:10287C007B681B68164A934209D07B681B68B3F1CE
:10288C00804F04D07B681B68124A934211D17B683D
:10289C001B689B6803F00703FB60FB68062B10D0DA
:1028AC007B681B681A687B681B6842F001021A601F
:1028BC0007E07B681B681A687B681B6842F00102A2
:1028CC001A60002318461437BD4680BC704700BF01
:1028DC00002C01400004004080B582B000AF78604D
:1028EC007B681B681B6903F00203022B22D17B68F7
:1028FC001B68DB6803F00203022B1BD17B681B688F
:10290C006FF002021A617B6801221A777B681B68E0
:10291C009B6903F00303002B03D0786800F0B1F936
:10292C0005E0786800F0A4F9786800F0B3F97B68EA
:10293C0000221A777B681B681B6903F00403042BC5
:10294C0022D17B681B68DB6803F00403042B1BD1CA
:10295C007B681B686FF004021A617B6802221A778D
:10296C007B681B689B6903F44073002B03D0786869
:10297C0000F087F905E0786800F07AF9786800F0E3
:10298C0089F97B6800221A777B681B681B6903F046
:10299C000803082B22D17B681B68DB6803F0080353
:1029AC00082B1BD17B681B686FF008021A617B68CF
:1029BC0004221A777B681B68DB6903F00303002B86
:1029CC0003D0786800F05DF905E0786800F050F904
:1029DC00786800F05FF97B6800221A777B681B68C7
:1029EC001B6903F01003102B22D17B681B68DB687A
:1029FC0003F01003102B1BD17B681B686FF01002C7
:102A0C001A617B6808221A777B681B68DB6903F400
:102A1C004073002B03D0786800F033F905E0786838
:102A2C0000F026F9786800F035F97B6800221A77F7
:102A3C007B681B681B6903F00103012B0ED17B68BB
:102A4C001B68DB6803F00103012B07D17B681B6853
:102A5C006FF001021A617868FEF71CFE7B681B6838
:102A6C001B6903F08003802B0ED17B681B68DB682D
:102A7C0003F08003802B07D17B681B686FF080020A
:102A8C001A61786800F067FA7B681B681B6903F0B1
:102A9C004003402B0ED17B681B68DB6803F04003BE
:102AAC00402B07D17B681B686FF040021A61786875
:102ABC0000F0F9F87B681B681B6903F02003202BDE
:102ACC000ED17B681B68DB6803F02003202B07D139
:102ADC007B681B686FF020021A61786800F032FA8C
:102AEC0000BF0837BD4680BD80B584B000AF7860AC
:102AFC0039607B6893F83C30012B01D10223B3E0A1
:102B0C007B68012283F83C207B68022283F83D20FD
:102B1C007B681B689B68FB60FB6823F07703FB609A
:102B2C00FB6823F47F43FB607B681B68FA689A6040
:102B3C003B681B68B3F5005F3ED0B3F5005F00F255
:102B4C008780B3F5805F00F08580B3F5805F7FD818
:102B5C00702B1AD0702B7BD8602B50D0602B77D871
:102B6C00502B3CD0502B73D8402B58D0402B6FD8C7
:102B7C00302B64D0302B6BD8202B60D0202B67D817
:102B8C00002B5CD0102B5AD062E07B6818683B6835
:102B9C0099683B685A683B68DB6800F05CF97B68B5
:102BAC001B689B68FB60FB6843F07703FB607B68EA
:102BBC001B68FA689A604EE07B6818683B689968F5
:102BCC003B685A683B68DB6800F045F97B681B681A
:102BDC009A687B681B6842F480429A603BE07B6891
:102BEC0018683B6859683B68DB681A4600F0BCF80B
:102BFC007B681B685021184600F013F92BE07B68AA
:102C0C0018683B6859683B68DB681A4600F0DAF8CC
:102C1C007B681B686021184600F003F91BE07B6899
:102C2C0018683B6859683B68DB681A4600F09CF8EA
:102C3C007B681B684021184600F0F3F80BE07B68BA
:102C4C001A683B681B681946104600F0EAF802E067
:102C5C0000BF00E000BF7B68012283F83D207B6849
:102C6C00002283F83C20002318461037BD4680BD57
:102C7C0080B483B000AF786000BF0C37BD4680BC19
:102C8C00704780B483B000AF786000BF0C37BD468E
:102C9C0080BC704780B483B000AF786000BF0C3745
:102CAC00BD4680BC704780B483B000AF786000BF75
:102CBC000C37BD4680BC704780B485B000AF7860DF
:102CCC0039607B681B68FB607B68254A934207D0A0
:102CDC007B68B3F1804F03D07B68224A934208D1C2
:102CEC00FB6823F07003FB603B685B68FA68134376
:102CFC00FB607B681A4A934207D07B68B3F1804F24
:102D0C0003D07B68174A934208D1FB6823F44073C5
:102D1C00FB603B68DB68FA681343FB60FB6823F0DD
:102D2C0080023B685B691343FB607B68FA681A603E
:102D3C003B689A687B68DA623B681A687B689A62BF
:102D4C007B68074A934203D13B681A697B681A6314
:102D5C007B6801225A6100BF1437BD4680BC7047A6
:102D6C00002C01400004004080B487B000AFF86034
:102D7C00B9607A60FB681B6A7B61FB681B6A23F095
:102D8C000102FB681A62FB689B693B613B6923F09B
:102D9C00F0033B617B681B013A6913433B617B6920
:102DAC0023F00A037B617A69BB6813437B61FB6880
:102DBC003A699A61FB687A691A6200BF1C37BD4692
:102DCC0080BC704780B487B000AFF860B9607A609F
:102DDC00FB681B6A23F01002FB681A62FB689B6994
:102DEC007B61FB681B6A3B617B6923F470437B61ED
:102DFC007B681B037A6913437B613B6923F0A00357
:102E0C003B61BB681B013A6913433B61FB687A6900
:102E1C009A61FB683A691A6200BF1C37BD4680BCD8
:102E2C00704780B485B000AF786039607B689B6870
:102E3C00FB60FB6823F07003FB603A68FB6813438C
:102E4C0043F00703FB607B68FA689A6000BF143795
:102E5C00BD4680BC704780B487B000AFF860B960E5
:102E6C007A603B60FB689B687B617B6923F47F43E2
:102E7C007B613B681A027B681A43BB6813437A690F
:102E8C0013437B61FB687A699A6000BF1C37BD46AF
:102E9C0080BC704780B485B000AF786039607B68C7
:102EAC0093F83C30012B01D1022341E07B680122D5
:102EBC0083F83C207B68022283F83D207B681B68EA
:102ECC005B68FB607B681B689B68BB60FB6823F0DE
:102EDC007003FB603B681B68FA681343FB607B68FC
:102EEC001B68FA685A607B681B68144A934209D0C5
:102EFC007B681B68B3F1804F04D07B681B68104A59
:102F0C0093420CD1BB6823F08003BB603B685B68C9
:102F1C00BA681343BB607B681B68BA689A607B68AD
:102F2C00012283F83D207B68002283F83C2000239B
:102F3C0018461437BD4680BC704700BF002C0140BA
:102F4C000004004080B483B000AF786000BF0C3741
:102F5C00BD4680BC704780B483B000AF786000BFC2
:102F6C000C37BD4680BC704770B500260C4D0D4C1F
:102F7C00641BA410A64209D100F022F800260A4DC9
:102F8C000A4C641BA410A64205D170BD55F8043B35
:102F9C0098470136EEE755F8043B98470136F2E7BF
:102FAC000430000804300008043000080830000821
:102FBC0003460244934200D1704703F8011BF9E722
:102FCC00F8B500BFF8BC08BC9E467047F8B500BF0A
:082FDC00F8BC08BC9E467047DA
:102FE40002030405060708090A0B0C0D0E0F101046
:102FF40000000000000000000102030406070809A5
:04300400310100088E
:043008000D010008AE
:10300C0003000000040000000500000007000000A1
:10301C00182442427E4242420F0000000800000089
:10302C00320000000A0000000024F4001000000030
:04303C00010000008F
:04000005080019597D
:00000001FF
